:020000040800F2
:10000000A0250020C1010008F57800082767000836
:100010005D780008590F000827A9000800000000BB
:10002000000000000000000000000000238A00081B
:100030003729000800000000E3790008738B0008EE
:10004000DB010008DB010008DB010008DB01000820
:10005000DB010008DB01000839290008DB0100088A
:100060004F290008DB010008DB010008DB01000864
:10007000BD270008DB010008CD270008DB010008D0
:10008000DD270008ED270008DB0100086D0F0008E0
:100090005D0F0008DB010008DB010008DB01000840
:1000A000DB010008DB010008DB010008DB010008C0
:1000B000A98C0008E18C0008498D0008DB010008CC
:1000C000DB010008DB010008DB010008DB010008A0
:1000D000DB010008DD960008DB010008DB010008F9
:1000E00043290008DB010008DB010008DB010008F0
:1000F000DB010008DB010008DB010008DB01000870
:10010000DB010008DB010008818D0008DB0100082D
:10011000DB010008DB010008DB010008DB0100084F
:10012000DB010008FD2700080D280008DB0100089E
:10013000DB010008DB010008DB0100088D0F00086F
:100140007D0F0008DB010008DB01000831790008A1
:10015000DB010008DB010008DB010008DB0100080F
:10016000DB010008DB010008DB010008DB010008FF
:10017000DB010008DB010008DB01000800000000D3
:10018000DB010008DB010008DB010008DB010008DF
:10019000DB010008DB010008DB010008DB010008CF
:1001A0000000000000000000DB010008DFF80CD0B8
:1001B00000F036FB00480047B1BF0008A025002032
:1001C0000648804706480047FEE7FEE7FEE7FEE7F1
:1001D000FEE7FEE7FEE7FEE7FEE7FEE7458C0008E8
:1001E000AD01000840EA01039B0703D009E008C9FC
:1001F000121F08C0042AFAD203E011F8013B00F8EC
:10020000013B521EF9D27047D2B201E000F8012B37
:10021000491EFBD270470022F6E710B513460A4686
:1002200004461946FFF7F0FF204610BD2DE9FE4FAA
:10023000804681EA0300C00F0C46009021F0004187
:1002400023F00045B8EB0200A94105D24046214603
:1002500090461C460B46024623F00040104347D010
:10026000270DC7F30A00C3F30A510290401A019008
:1002700040286BDAC3F3130040F4801B00989246C9
:1002800020B10023D2EB030A63EB0B0B0198594614
:10029000C0F14002504600F0BDF906460D465046FA
:1002A0005946019A00F0C5F910EB0800614100249D
:1002B00087EA115284EAE7731A4340D0009A62B386
:1002C000019A012A4FEA075215DC001B61EB02017B
:1002D0004FF0004202EA0752CDE90042001C41F50E
:1002E000801132462B4600F0FCF903B0BDE8F08FD8
:1002F00040462146F9E7001B61EB0201001C41F575
:10030000801300185B412018A2F5001747EB03018A
:1003100040EAD570B6196D4111E06D084FEA360616
:1003200045EAC0754FEA0752001B61EB0201001C51
:1003300041F5801149084FEA300000195141324619
:100340002B4603B0BDE8F04F00F0BCB90098012285
:1003500040000023D0EB020263EBE07300982146DB
:100360004FEAE074B8EB000061EB0401E9E783F0C9
:1003700000435BE781F0004158E72DE9FE4F81EA39
:10038000030404F0004421F0004100944FF0000BFE
:1003900023F0004350EA01045ED052EA03045BD02C
:1003A000C3F30A54C1F30A552C44A4F2F334019464
:1003B000A0FB0254C1F3130141F48011C3F31303F2
:1003C00043F4801301FB024400FB034E840A970AA6
:1003D00044EA815447EA8357A4FB076802958D0AD3
:1003E00005FB07854FEA932C04FB0C542705029D5F
:1003F0004FEA065847EA1637B5EB08056EEB070CCF
:10040000870E920E47EA811742EA8312A7FB020188
:10041000B6EB0B0164EB00042B0D43EA0C335E18C2
:1004200044EB1C50DA465146E7FB0201C5F31304C6
:100430004FEA0B3343EA14534FEA0432019C43EA78
:100440000603A4F10C040294009CCDE900B400F072
:1004500048F903B0BDE8F08F00200146F9E72DE927
:10046000F04D81EA030404F0004B21F000451446EE
:100470004FF0000A23F0004150EA050220D054EA70
:1004800001021DD0C5F30A570246C5F31303C1F399
:100490001300C1F30A5640F4801543F48013A7EB10
:1004A0000608101BD64608F2FD3873EB050002D390
:1004B00008F1010801E092185B41B8F1000F03DA7E
:1004C00000200146BDE8F08D00204FF48011064663
:1004D00084460EE0171B73EB050705D3121B63EB75
:1004E000050306434CEA010C49084FEA3000921814
:1004F0005B4150EA0107EDD152EA030012D082EAD3
:10050000040083EA0501084305D0101BAB4106D265
:100510000122002306E000224FF0004302E06FF0CA
:10052000010253101AEB06004CEB085110EB0A00C5
:1005300041EB0B01BDE8F04D00F0C4B80EB540F240
:10054000334102910021CDE900110A460B4600F02B
:10055000C8F803B000BD00F0004230F000400AD0FF
:10056000C10D01F56071C0F3160042EA0151C208E5
:1005700040071143704700200146704730B5041E04
:1005800071F1000404DB4FF00044404264EB0101D0
:10059000141E73F1000405DB1C464FF00043524269
:1005A00063EB04038B4208BF824230BD30B5041EAA
:1005B00071F1000404DB4FF00044404264EB0101A0
:1005C000141E73F1000405DB1C464FF00043524239
:1005D00063EB0403994208BF904230BD01F0004331
:1005E00030B421F0004150EA010206D00A0DA2F514
:1005F0006072C1F31301002A02DC30BC0020704796
:10060000440F44EAC104C100E01830BC00EBC25002
:1006100000F021B8202A04DB203A00FA02F1002081
:1006200070479140C2F1200320FA03F31943904030
:100630007047202A06DBCB17203A41FA02F043EA42
:10064000E07306E041FA02F3D040C2F1200291408B
:100650000843194670470029A8BF7047401C49004D
:1006600008BF20F00100704710B4B0FA80FC00FA17
:100670000CF050EA010404BF10BC704749B1CCF142
:10068000200421FA04F411FA0CF118BF01212143CE
:100690000843A3EB0C01CB1D4FEA00614FEA102089
:1006A00042BF002010BC704700EBC350104400292B
:1006B000A4BF10BC7047401C490008BF20F00100D7
:1006C00010BC704710B5141E73F1000408DA401C0A
:1006D00041F1000192185B411A4301D120F0010061
:1006E00010BD2DE9F04D92469B4611B1B1FA81F251
:1006F00002E0B0FA80F220329046FFF78BFF04460A
:100700000F4640EA0A0041EA0B0153465A460843A5
:1007100013D0114653EA010019D0C8F140025046E7
:1007200000F090F805460E46504659464246FFF7FF
:1007300071FF084305D0012004E020463946BDE89A
:10074000F08D0020054346EAE0762C4337430A98B3
:100750006305E40AA0EB08000022FD0A44EA4754BE
:100760000A3002D500200146E9E701051019694168
:10077000DDE9084500196941BDE8F04DA2E72DE922
:10078000F04D00231A461B1A8A4103DB0020014664
:10079000BDE8F08DC1F30A52C1F3130141F4801595
:1007A0004FF0000BD10702D100186D41521E0027F7
:1007B000044640F2FF11384601EB620A3E4680468D
:1007C000024600204FF4801100F03CF8C21971413C
:1007D000BB1846EB0100B4EB030C75EB000C04D323
:1007E000E41A65EB000517460E46241908F10100CE
:1007F0006D4180463428E3DDF91946EB0600091BFC
:10080000A84103D24FF0FF32134601E00022134605
:100810001BEB070046EB0A51BDE8F04DFFF752BF56
:10082000064C074D06E0E06840F0010394E807003D
:1008300098471034AC42F6D3FFF7BCFC00C7000861
:1008400020C70008202A04DB203A21FA02F0002108
:10085000704721FA02F3D040C2F1200291400843D0
:10086000194670470EB5C10F80EAE0700844CA0708
:10087000002140F233438DE80E000A460B46FFF795
:1008800030FF03B000BD70B5C1F30A5201F000455E
:100890000024C1F3130140F2FF3341F480119A4266
:1008A00001DA002070BD40F233439A42A2F2334293
:1008B00003DC5242FFF7C6FF00E090402C43F1D02A
:1008C000404270BD70B58C1810F8015B15F007033D
:1008D00001D110F8013B2A1106D110F8012B03E0D9
:1008E00010F8016B01F8016B5B1EF9D12B0705D4E1
:1008F0000023521E0DD401F8013BFAE710F8013B2A
:10090000CB1A921C03E013F8015B01F8015B521E45
:10091000F9D5A142D8D3002070BDD0ED000AF4EE85
:10092000C00AF1EE10FA01DD80ED000AD0ED000AF8
:10093000B1EE401AF4EEC10AF1EE10FA03D2F1EE74
:10094000400AC0ED000A704700B58BB007F0CEFC3E
:1009500006F03EFE06F0BAFD124991F8280000F0BC
:100960005FF9282210496846FFF73CFC0E48103812
:100970000FC800F05FF80B4890ED0C2AF0EE421A19
:1009800090ED0B2AB0EE421A90ED0D2AF0EE420ADD
:10099000064890ED5A2AB0EE420A00F043FC0BB034
:1009A00000BD000018020020B0020020FC11002051
:1009B00000201949887008730846017B41730021A3
:1009C000C17301749FED150A80ED060AB2EE030AA9
:1009D00080ED050A0020104981F8280000210E480A
:1009E00080F8291090F8291080F82A109FED0C0A41
:1009F00080ED0C0A9FED0B0A80ED0B0A9FED0A0AB1
:100A000080ED0D0A094890ED0F0ADFED090A20EE8E
:100A1000200A80ED5A0A7047180200206666863F59
:100A200000002042000048420AD7233DFC1100206C
:100A30000000B4430FB410B57248007858BB9DF85D
:100A4000300040B37048007888B901216F48817345
:100A500001206F49087702216D4880F8B510002009
:100A60006A49C870486001206749087013E0664809
:100A7000007801280FD10021644881730020644967
:100A800008770121624880F8B51000205F49C870DE
:100A900048605D4908705E4890F8B50002287CD136
:100AA0005A48406840B10A280CD0A0F20E6070B1DC
:100AB000A0F6B83030BB17E0002054498870554983
:100AC000087024E00120514981F828001FE04F48B8
:100AD000C078012803D14D4981F8280003E040F295
:100AE0000D604A49486012E04848C078022804D1A5
:100AF0000120464981F8280003E041F2C51043492E
:100B0000486004E00020414981F8280000BF00BF90
:100B10003E484068401C3D4948600846007802282D
:100B200021D10846407801281DD10846C078012807
:100B300010D1002408E004EB4401374A02EBC11055
:100B400001F0F4FB601CC4B2062CF4DB01202F4939
:100B500088704CE02D48C078002848D1002104203E
:100B600001F0D2FC43E02948007803283FD1274810
:100B7000407802283BD12548C078401C2349C870E2
:100B8000002081F828000846C07803282FD10120D2
:100B90002249087001211E4800E010E080F8B510DD
:100BA00000201B49087719498870012019490870ED
:100BB000002101F0A9FC00211448817317E01448BA
:100BC00090F8B500012812D11248007801280ED102
:100BD00000200F4908770D49C87048600A4908701D
:100BE0000C490870094981F828000C4908700B4825
:100BF00000780BF0ABF99DF830000249087010BC8A
:100C00005DF814FBF0000020F10000201802002025
:100C10002C010020F2000020FC050020F300002041
:100C200010B504464448047044480078434948706D
:100C30004348007850B94048007838B141480078BE
:100C4000401C4049087000203C4908703D4800782D
:100C500000286BD03C480088401C3B49088008466F
:100C60000088B0F52F7F3DD00ADC012816D032284D
:100C70001CD064281FD0A0F22620002855D128E0DF
:100C8000B0F5577F33D0A0F27E4078B3B0F5AF7F98
:100C90003BD0A0F25F10002847D13CE000210120AA
:100CA00001F032FC0120254908703EE001210220BC
:100CB00001F02AFC39E0254890ED0F0ADFED240A07
:100CC00030EE600ADFED230A20EE200A80ED5A0A9A
:100CD0002BE00121084601F017FC0021022001F061
:100CE00013FC22E00220154908731EE009E01748B2
:100CF00090ED0F0ADFED170A20EE200A80ED5A0A68
:100D000013E002200D4908700FE003200B49087022
:100D10000120087309E00020074908700A4908808B
:100D200008480078401E0749087000BF0248007854
:100D30000349087010BD0000E400002018020020E4
:100D4000E5000020E6000020E8000020FC11002063
:100D50009A991D410000B44310B52DED0C8B82B063
:100D600001200023704A111F0090081F02F0FCF8B8
:100D70001E216E4802F098F8B0EE403A1E216C48F1
:100D800002F092F833EE003A1E216A4802F08CF825
:100D900033EE000A10EE104A2046FFF7DCFB41EC70
:100DA000190BB0EE490AF0EE690A0AF045F9B0EE07
:100DB000408AF0EE608A51EC180BFFF70FFC5E4999
:100DC00008601E21594801F083FF5C4880ED000A4D
:100DD0001E21574801F07CFF584880ED010A1E2172
:100DE000544801F075FF554880ED020A4E482438FA
:100DF00090ED030AD0ED100AB0EE001A70EEC10AB1
:100E0000B4EEE00AF1EE10FA7DDD4D4800780028DE
:100E100079D1494890ED000ADFED4A0AB4EEE00AC4
:100E2000F1EE10FA5CD2454890ED020A10EE101A6D
:100E30000846FFF790FB41EC1B0BB0EE4B0AF0EEBF
:100E40006B0A0AF089F8B0EE409AF0EE609A3B48DF
:100E500090ED010A10EE101A0846FFF77CFB41ECFA
:100E60001D0BB0EE4D0AF0EE6D0A0AF075F8B0EE0B
:100E700040BAF0EE60BA314890ED000A10EE101A58
:100E80000846FFF768FB41EC1D0BB0EE4D0AF0EE93
:100E90006D0A0AF061F8B0EE40CAF0EE60CA53EC99
:100EA0001B2B51EC1C0BFFF7C1F941EC1A0B53EC57
:100EB000192BFFF7BBF941EC180B9FED230B53ECFB
:100EC000102BFFF75BFB0BD2214800884FF6FF7118
:100ED000884208DA1E480088401C1D49088002E04C
:100EE00000201B4908801A480088B0F57A6F16DD8B
:100EF000124890ED000A174880ED040A0F4890ED63
:100F0000010A144800E00AE080ED050A0B4890ED64
:100F1000020A104880ED060A01200949087002B053
:100F2000BDEC0C8B10BD0000FC02002088040020EA
:100F3000000500207805002000010020F0050020B9
:100F40001A01002000003442000000000000494067
:100F5000FE000020B003002000BFFEE710B50248ED
:100F600002F02AF910BD0000AC15002010B50248AF
:100F700002F022F910BD0000AC15002010B50248A7
:100F800002F01AF910BD0000EC15002010B502485F
:100F900002F012F910BD0000EC15002000B58BB076
:100FA00000200690079001200890002001900290F8
:100FB0000390049005900E200A900120099001A949
:100FC0000A4802F061F80E20069001A9084802F0D4
:100FD0005BF808480549086307484863074804491F
:100FE0000863074848630BB000BD0000AC15002043
:100FF000EC1500202C160020481600206C1600204E
:101000008816002070B504460D46206800F5D8709B
:1010100000EB0510006800F00400616B8860606BF5
:10102000806860B9206800F5D87000EB0510006892
:1010300040F2FF7101EA5050616B08600BE02068DC
:1010400000F5D87000EB051000686FF0604101EA10
:10105000D000616B4860206800F5D87000EB051087
:10106000006800F00200616BC860206800F5D8706D
:1010700000EB0510406800F00F00616B0861606BC9
:101080000562206800F5D87000EB05104068C0F3D9
:101090000720616BC861206800F5D87000EB05106F
:1010A0008068616B0875206800F5D87000EB05104A
:1010B0008068010A606B4175206800F5D87000EB0C
:1010C00005108068010C606B8175206800F5D87090
:1010D00000EB05108068000E616BC875206800F594
:1010E000D87000EB0510C068C1B2606B0176206853
:1010F00000F5D87000EB0510C068010A606B4176FE
:10110000206800F5D87000EB0510C068010C606B1A
:101110008176206800F5D87000EB0510C068000EDD
:10112000616BC8764DB920202168C860206840698D
:1011300020F002002168486108E020202168086151
:101140002068406920F010002168486194F8380058
:1011500022281DD12068406920F4807021684861F0
:101160002068406920F40070216848612068406967
:1011700020F48060216848612068406920F40060A4
:10118000216848612068406920F400402168486176
:1011900094F83800322803D1122084F8380002E095
:1011A000012084F83800204602F0BEFA002070BD0D
:1011B00010B504462068406920F0010021684861AC
:1011C00094F8380012281DD12068406920F48070FE
:1011D000216848612068406920F4007021684861F6
:1011E0002068406920F48060216848612068406977
:1011F00020F40060216848612068406920F40040C4
:101200002168486194F83800322803D1222084F8FC
:10121000380002E0012084F83800204602F02EFC5D
:10122000002010BD10B52DED068BF0EE408AF0EEDB
:10123000609AB0EE41AAF0EE61AAC448C0ED008AFF
:1012400090ED000AC248D0ED000AB4EE600AF1EE5B
:1012500010FA02D00120BF490870BE48007801286A
:1012600074D1BD48D0ED0E0A9FEDBC1AB0EE680AED
:1012700000EEC10AB0EE408AB5EEC08AF1EE10FA77
:1012800002DDB0EE480A01E0B1EE480A60EE290A3C
:101290009FEDB21A80EE810AF2EE030A80EE209AE8
:1012A000AD4890ED0F0ADFEDAD0A20EE200AA74809
:1012B000D0ED000AB4EE600AF1EE10FA47D1A6486C
:1012C00090ED0F0AF1EE060A30EE600ADFEDA30A98
:1012D00020EE200A9E48D0ED000AB4EE600AF1EE3E
:1012E00010FA07D100209B49087000219C4880F823
:1012F0002910A9E029EE0A0AB0EE409A9648D0EDEE
:101300003B0AB0EE600AF0EE491A9FED961ADFED47
:10131000950AD0F81011D4308847B5EEC08AF1EEA6
:1013200010FA02DDB0EE480A01E0B1EE480ADFED46
:101330008E0AB4EEE00AF1EE10FA06D200208549DA
:1013400008700021864880F829107DE07DE0824801
:1013500090ED0F0ADFED850A30EE600ADFED7F0ABF
:1013600020EE200A7948D0ED000AB4EE600AF1EED2
:1013700010FA27D17848D0ED3B0AB0EE600AF0EEC3
:10138000491A9FED781ADFED770AD0F81011D430A2
:101390008847B5EEC08AF1EE10FA02DDB0EE480AD9
:1013A00001E0B1EE480ADFED720AB4EEE00AF1EEB8
:1013B00010FA49D20020674908700121684880F876
:1013C000291041E0644890ED0F0AF1EE060A30EE74
:1013D000600ADFED620A20EE200A5C48D0ED000AC8
:1013E000B4EE600AF1EE10FA2BD129EE2A0AB0EE23
:1013F000409A5948D0ED3B0AB0EE600AF0EE491A27
:101400009FED581ADFED570AD0F81011D4308847F5
:10141000B5EEC08AF1EE10FA02DDB0EE480A01E046
:10142000B1EE480ADFED530AB4EEE00AF1EE10FA2D
:101430000AD20020474908700121494880F8291044
:1014400002E00020434908704DE0454890F829002B
:1014500010BB4148DFED485A9FED425ADFED414A4B
:101460009FED404ADFED3F3A9FED3E3ADFED3D2AEA
:101470009FED3C2ADFED411A9FED411ADFED410A55
:101480009FED410A0121D0F80C21D4309047022170
:10149000334880F8291026E0314890F829000128C7
:1014A00021D12D48DFED395A9FED2E5ADFED2D4A1F
:1014B0009FED2C4ADFED2B3A9FED2A3ADFED292AEA
:1014C0009FED282ADFED321A9FED2D1ADFED2D0A50
:1014D0009FED300A0121D0F80C21D4309047022131
:1014E0001F4880F829101C48D0ED0E0A9FED1B1AEA
:1014F00060EE810AB0EE600AF0EE680AD0F888105B
:1015000040308847144880ED5C0A90ED5C1ADFEDAE
:10151000221A21EE211AF0EE410A90ED031AB0EEE4
:10152000410AD0F81C11D43088470B4880ED5E0A80
:10153000064890ED000A064880ED000A084890F839
:10154000291080F82A10BDEC068B10BDBC000020CD
:10155000C0000020C4000020FC1100200000B443A3
:101560001802002000000000000064449A991D4108
:101570000000E443CCCC884300C05A459A99193FF7
:1015800000007AC400007A4400A08C4500409C45CD
:101590009A99993F0000FA457B14B64110B56C4802
:1015A000007896287DD06A480078012831D100243F
:1015B0002DE004EB4402674B03EBC21202F1D400AE
:1015C00004EB440203EBC212DFED631A9FED621AD3
:1015D000DFED610A9FED610AD2F81811884704EB2C
:1015E00044025C4B03EBC21202F1D40004EB440250
:1015F00003EBC212DFED581A9FED571ADFED560AC2
:10160000B6EE000AD2F810118847601CC4B2062C4E
:10161000CFDB534890ED040AF0EE401A90ED030A38
:10162000B0EE401A90ED020AF0EE400A4D48007804
:101630009FED490A00F0C6F94548007895286CD11D
:10164000002428E004EB4401424B03EBC11101F1FB
:10165000D40004EB440103EBC111DFED435A9FEDCD
:101660003E5ADFED3D4A9FED3C4ADFED3B3A9FEDB0
:101670003A3ADFED392A9FED382ADFED3C1A9FED2B
:10168000361ADFED350A9FED3A0AD1F80C21012117
:101690009047601CC4B2042CD4DB2E48DFED2E5AD8
:1016A00000E040E09FED2C5ADFED2B4A9FED2A4AE7
:1016B000DFED293A9FED283ADFED272A9FED262A14
:1016C000F0EE001A9FED241ADFED230A9FED280AA1
:1016D0000121D0F80C2700F2D46090471D48DFEDBF
:1016E0001E5A9FED1D5ADFED1C4A9FED1B4ADFED90
:1016F0001A3A9FED193ADFED182A9FED172AF0EEFE
:10170000001A9FED151ADFED140A9FED190A012149
:10171000D0F88C2800F6540090470D480078401C03
:101720000B49087013E00A48007896280FD1114839
:101730008078012804D1064908700A49087006E03B
:1017400000F07CF800F076FB00200649087010BD20
:101750007C000020FC050020000000000080BB454C
:101760002C0100207D0000200000FA436666E63F61
:1017700000E02B461802002010B52B4890F8B50069
:1017800028B99FED2A0A284880ED010A3EE0264844
:1017900090F8B500042805D19FED250A224880ED78
:1017A000010A33E0204890ED000ADFED220AB4EE92
:1017B000600AF1EE10FA08D090ED000ADFED1E0A83
:1017C000B4EE600AF1EE10FA20D19FED190A164826
:1017D00080ED010A90F8B500012804D0124890F875
:1017E000B500022804D100210F4880F8B71003E0AB
:1017F00001210D4880F8B7100B4890F8B61090F80A
:10180000B700814202D0012006F0C6FB064890F8DE
:10181000B700054981F8B6000846D0ED010AB0EEE0
:10182000600A09F0BBF810BD2C0100200040034500
:1018300000009644000034430000874310B52DEDAE
:10184000048B224890ED060ADFED210A80EE201A73
:10185000204880ED321A90ED320AD0ED310A30EE98
:10186000200A10EE101A0846FEF775FE41EC190B1F
:10187000B0EE490AF0EE690A09F06EFBB0EE408A5C
:10188000F0EE608A9FED140B53EC102B51EC180B0B
:10189000FEF78CFE11D20F4890ED311AF0EE410A9E
:1018A00090ED321AB1EE411AB0EE410A203006F046
:1018B000B7F8084880ED330A04E09FED090A0548AF
:1018C00080ED330ABDEC048B10BD0000D80200206F
:1018D0006F1283412C010020000000000000F83F3F
:1018E0000000000000B58BB0174991ED001AF0EE32
:1018F000410A91ED341AB0EE410A91F8B50000F0BA
:1019000027F8FFF739FF1048282210490A90684647
:10191000FEF768FC0D4810380FC801F05DF8FFF7BE
:101920003DFE06F05FF808498877002006F034FB9A
:10193000282206496846FEF755FC044810380FC8AF
:1019400007F070F80BB000BD2C010020B0020020A1
:1019500005282AD2DFE800F003151F090F009FEDCC
:10196000141A144981ED001A1FE09FED131A114952
:1019700081ED001A19E09FED0E1A0E4981ED001A53
:1019800013E09FED0E1A0B4981ED341A9FED0C1AEE
:1019900081ED001A09E09FED091A064981ED341A1C
:1019A0009FED071A81ED001A00BF00BF70470000CD
:1019B000000000002C0100200000344300007A45A4
:1019C0000000874330B52DED0E8B87B0F0EE40DA86
:1019D000F0EE609AB0EE41AAB0EE618A05469FED46
:1019E000FE0AB0EE40EA9FEDFC0AF0EE40EA9FED01
:1019F000FB0A2DEE800ADFEDFA0A80EE201A11EEC6
:101A0000104A2046FEF7A7FD41EC1C0BB0EE4C0A35
:101A1000F0EE6C0A09F0ACFAB0EE40BAF0EE60BA43
:101A200051EC1B0BFEF7DAFD0EEE100A9FEDEB0AF0
:101A30002DEE800ADFEDEA0A80EE201A11EE104A40
:101A40002046FEF788FD41EC1C0BB0EE4C0AF0EE90
:101A50006C0A09F01DFAB0EE40BAF0EE60BA51EC33
:101A60001B0BFEF7BBFD0EEE900ADE480078002847
:101A70006FD1002D6DD0002208E002EB4201DA4B5D
:101A800003EBC11000F052FC501CC2B2062AF4DB7A
:101A90009FEDD10AD54880ED000AB2EE040AF4EEBB
:101AA000C09AF1EE10FA18DDF5EEC09AF1EE10FAD8
:101AB00002DDB0EE690A01E0B1EE690ADFEDCC0AA1
:101AC000B4EEE00AF1EE10FA07D29FEDCA0AC9EEB1
:101AD000800AC948C0ED000A04E09FEDBF0AC6486D
:101AE00080ED000A9FEDBC0AC44880ED000AB2EE0A
:101AF000040AB4EEC0AAF1EE10FA18DDB5EEC0AAE1
:101B0000F1EE10FA02DDB0EE4A0A01E0B1EE4A0A47
:101B1000DFEDB70AB4EEE00AF1EE10FA07D29FED5E
:101B2000B80ACAEE000AB748C0ED000A04E09FED0B
:101B3000AA0AB44880ED000A9FEDA70AB24880EDDA
:101B4000000AB5EEC08AF1EE10FA03DDB0EE480AE5
:101B500002E026E0B1EE480AF1EE040AB4EEE00A33
:101B6000F1EE10FA18DDB5EEC08AF1EE10FA02DDE2
:101B7000B0EE480A01E0B1EE480ADFED9D0AB4EE8E
:101B8000E00AF1EE10FA07D29FEDA00AC8EE000AB3
:101B90009F48C0ED000A04E09FED8F0A9C4880ED4D
:101BA000000A9FED8D0AF0EE40AA9FED8B0AF0EE41
:101BB000408A9FED890AB0EE409A9FED870AB0EE09
:101BC00040DA182101A8FEF726FB884890ED000AAC
:101BD000DFED900A20EE200A8748D0ED000A9FED45
:101BE0008E1A00EE810A814880ED000A834890ED4C
:101BF000000ADFED8A0A20EE200A8248D0ED000AB2
:101C00009FED871A00EE810A7C4880ED000A7E482D
:101C100090ED000ADFED810A20EE200A7C48D0ED2D
:101C2000000A9FED7F1A00EE810A774880ED000AD6
:101C30006E4890ED000A20EE0E0AF0EE40AA90EDFC
:101C4000000A20EE2E0AF0EE408A6C4890ED000A61
:101C500020EE0E0AB0EE409A90ED000A20EE2E0A19
:101C6000B0EE40DA38EEC90A7AEE8D0A30EE200A7C
:101C70006548D0ED000A30EE200A8DED010A38EEFD
:101C8000C90AB1EE400A7AEE8D0A30EE200AD0ED94
:101C9000000A30EE200A8DED020A38EEC90A7AEE0B
:101CA0008D0A30EE600AD0ED000A30EE200A8DED8C
:101CB000030A38EEC90AB1EE400A7AEE8D0A30EE18
:101CC000600AD0ED000A30EE200A8DED040A38EEED
:101CD000C90AD0ED000A9FED531A01EE200A8DEDDE
:101CE000050A38EEC90AB1EE400AD0ED000A9FEDB0
:101CF0004D1A01EE200A8DED060A9DED010ADFED79
:101D00004A0A20EE200A384880ED5A0A90ED5A1A05
:101D1000F0EE410A90ED0E1ADFED441A21EE211A81
:101D2000B0EE410A403005F07BFEDFED410A20EEC7
:101D3000200A2D4880ED5C0A002445E02A4991EDF7
:101D40005C1AF0EE410A610001EB4101264A02EB08
:101D5000C11191ED031AB0EE410A610001EB41019E
:101D600002EBC11101F1D40005F05AFE600000EB56
:101D700040001D4901EBC01080ED5E0A91ED5C1A38
:101D8000B1EE411AF0EE410A6100491C01EB41013C
:101D9000154A02EBC11191ED031AB0EE410A610040
:101DA000491C01EB410102EBC11101F1D40005F026
:101DB00037FE6000401C00EB40000B4901EBC010F7
:101DC00080ED5E0A601CC4B2032CB7DB05480570C9
:101DD00007B0BDEC0E8B30BD00000000F90F49408C
:101DE000000034436C000020FC050020600000204F
:101DF00000007A440080E843700000206400002066
:101E00000080DE43740000206800002000008C4247
:101E1000780000206666663FCDCCCC3DCDCC4C3FF3
:101E2000CDCC4C3EB81E453F0000B443CDCC9A41CA
:101E30000000FA4510B52DED108B88B0FD4890EDEF
:101E4000000AB0EE40AA00200EE000EB4001FA4A82
:101E500002EBC11191ED5E0A00EB400102EBC111F2
:101E600081ED5F0A411CC8B20628EEDBF348007919
:101E700001287DD1EF4890ED2E0AF14880ED000A4F
:101E8000EC4890ED2F0AEF4880ED000A9FEDEE0A36
:101E9000F0EE40AA9FEDEC0AB0EE40DA9FEDEA0AC0
:101EA000B0EE409A9FEDE80AB0EE408A9FEDE60A58
:101EB000F0EE408A9FEDE40AF0EE409A1C22E349DE
:101EC00001A8FEF78FF99FEDE20A2AEE000ADFED86
:101ED000E10A80EE201A11EE104A2046FEF73BFB85
:101EE00041EC1C0BB0EE4C0AF0EE6C0A09F040F825
:101EF000B0EE40BAF0EE60BA51EC1B0BFEF76EFB91
:101F00000AEE900A9FEDD20A2AEE000ADFEDD10A0E
:101F100080EE201A11EE104A2046FEF71CFB41EC21
:101F20001C0BB0EE4C0AF0EE6C0A08F0B1FFB0EEFC
:101F300040BAF0EE60BA51EC1B0BFEF74FFB0DEE12
:101F4000100ABF4890ED000A20EE2A0AB0EE409A2F
:101F500090ED000A20EE0D0AB0EE408AB94890EDEF
:101F6000000A20EE2A0AF0EE408A90ED000A00E016
:101F700081E020EE0D0AF0EE409A38EE680A79EE24
:101F8000290A30EE200A8DED010A38EE680AB1EE1A
:101F9000400A79EE290A30EE200A8DED020A38EE69
:101FA000680A79EE290A30EE600A8DED030A38EEF0
:101FB000680AB1EE400A79EE290A30EE600A8DED2A
:101FC000040A38EE680A8DED050A38EE680AB1EEAB
:101FD000400A8DED060A002013E0964991ED330A80
:101FE000D1ED340A01A901EB800191ED001A00EE58
:101FF000810A00EB4001904A02EBC11181ED5C0ABD
:10200000401C0428E9DB042432E08A4890ED330ABE
:1020100010EE101A0846FEF79EFA41EC1B0B9FEDDE
:102020008E0B53EC102BFEF7A8F941EC1C0B8148EA
:1020300090ED340A01A800EB8400D0ED000A20EEF8
:10204000200A10EE101A0846FEF785FA41EC1E0B26
:1020500053EC1C2BFEF7EAF841EC1F0BFEF7BEFA1F
:1020600004EB4401744A02EBC111C1F87001641C15
:10207000062CCADB1CE0002009E09FED730A00EB90
:1020800040016D4A02EBC11181ED5C0A401C06283B
:10209000F3DB9FED6D0A6A4880ED000A9FED6A0A46
:1020A000684880ED000A9FED680A624880ED330AB7
:1020B0000024E6E0624890ED000AB5EEC00AF1EEB9
:1020C00010FA2DD15F4890ED000AB5EEC00AF1EE8E
:1020D00010FA25D104EB4402574B03EBC21292EDE8
:1020E0005C1AF0EE410A04EB440203EBC21292EDDB
:1020F000031AB0EE410A04EB440203EBC21202F1F0
:10210000D40004EB440203EBC212D2F81C1188473E
:1021100004EB4400484901EBC01080ED5E0AAFE0DB
:1021200004EB4402444B03EBC21292ED5C1AF0EE56
:10213000410A04EB440203EBC21292ED031AB0EE23
:10214000410A04EB440203EBC21202F1D40004EB97
:10215000440203EBC212D2F81C11884704EB44007E
:10216000354901EBC01080ED5E0A04EB44000A46DD
:1021700002EBC01090ED5E0A04EB440002EBC010CD
:10218000D0ED5F0A30EE600A10EE101A0846FEF736
:10219000E2F941EC190BB0EE490AF0EE690A08F0D9
:1021A000DBFEB0EE408AF0EE608A9FED2D0B53EC23
:1021B000102B51EC180BFEF7F9F961D204EB440037
:1021C0001D4901EBC01090ED5E0A04EB440001EBE9
:1021D000C010D0ED5F0AB4EEE00AF1EE10FA10DDA7
:1021E00004EB440001EBC01090ED5F0ADFED1E0A26
:1021F00030EE200A04EB440001EBC01080ED5E0AD3
:102200003EE004EB44000C4901EBC01090ED5E0A87
:1022100004EB440001EBC010D0ED5F0AB4EEE00A1D
:10222000F1EE10FA2CD204EB440001EBC01090ED5B
:102230005F0A1BE02C010020FC050020500200205A
:10224000580000205C0000200000000058C2000878
:10225000F90F494000003443A4703D0AD7A3E83F7A
:102260000000000000209C400000E1445FED020AF5
:1022700030EE600A04EB440001EBC01080ED5E0A12
:10228000641C062CFFF616AF08B0BDEC108B10BD19
:1022900010B52DED028BB0EE408AF0EE608A9FED16
:1022A0001B0A1B4880ED020A80ED008A00201849B5
:1022B00008770846C0ED348A002180F8B51090F800
:1022C000B500134981F8B400124808620846016A53
:1022D000203088470E48DFED101A9FED0F1ADFED12
:1022E0000E0A9FED0E0AC16D203088470848DFEDC9
:1022F0000A1A9FED0B1ADFED0B0A9FED0B0A416ED8
:1023000020308847BDEC028B10BD00000000A543C3
:102310002C010020B17D0008000000000000704288
:102320000000FAC40000FA4400C0DA45C18B00EE98
:10233000101AB8EE400ADFED070A80EE201A80ED91
:102340000F1A9FED050A80ED0C0A9FED030A80ED40
:102350000E0A7047000000460000000000B52DED99
:10236000048B81B0254890ED0C0A10EE101A084637
:10237000FEF7F1F841EC190BB0EE490AF0EE690AEC
:1023800008F0EAFDB0EE408AF0EE608A51EC180BDE
:10239000FEF724F91A4988601A4890ED0C0A08469D
:1023A00080ED030A184890F8B50000EE100AB8EE68
:1023B000400A084680ED040A1448807848701348A3
:1023C000C1780F488170114801790D48C1700F48DC
:1023D00041790B4801710C48017F094841710C4853
:1023E000817B074881710069009005480FC800F0A3
:1023F00011F801B0BDEC048B00BD0000FC11002001
:1024000060150020FC0E00202C0100209800002008
:10241000180200200FB42DE9F0474FF001083648AC
:1024200090F8189049F4807A08A800F06DFC9DEDB2
:102430000A0A10EE104A9DED0B0A10EE105A9DED9F
:102440000C0A10EE106A9DF82080A5202B49087018
:1024500013204870002088700120C870FF220421DA
:10246000264800F06FFD25490871012048710320BE
:1024700088718020C871D120087202204872002023
:1024800088720220C872012008734C73200A887376
:10249000200CC873200E08744D74280A8874280C08
:1024A000C874280E08754E75300A8875300CC875CA
:1024B000300E0876084680F8198011480078887632
:1024C0000F4800880012C8760D4802881A210B4870
:1024D00000F01EFD074609498F76380AC87600BF0E
:1024E0000A231C220549074804F0B1F80028F7D157
:1024F000BDE8F0075DF814FBFC1400208D150020EA
:102500001C010020B019002070B505460C46012DB5
:1025100013D1012C08D1012202213F4801F03CFED9
:1025200001203E49087076E0002202213A4801F07D
:1025300033FE0020394908706DE0022D13D1012CC3
:1025400008D101221146344801F026FE012033490A
:10255000487060E0002201212F4801F01DFE00209C
:102560002E49487057E0032D13D1012C08D10122C8
:1025700020212B4801F010FE0120284988704AE0F4
:1025800000202649887000222021254801F004FE01
:1025900041E0042D13D1012C08D101221021204843
:1025A00001F0FAFD01201D49C87034E0002210211D
:1025B0001B4801F0F1FD00201849C8702BE0052DE3
:1025C00013D1012C08D101224021154801F0E4FD6E
:1025D0000120124908711EE000224021104801F03C
:1025E000DBFD00200D49087115E0062D13D1012CEB
:1025F00008D1012211030A4801F0CEFD012007494C
:10260000487108E000224FF48051054801F0C4FDF4
:1026100000200249487170BD00140240980000205B
:102620000010024010B5604890F83300012818D11E
:102630000021FFF769FF00210320FFF765FF00215C
:102640000420FFF761FF00210520FFF75DFF002157
:102650000620FFF759FF0120544908700020544913
:1026600008805248007801281BD151480088401C3E
:102670004F49088008460088012803D10121022023
:10268000FFF742FF4A480088502803D1002102206A
:10269000FFF73AFF46480088642802D100204349EA
:1026A0000870414890F83000012803D1012106202C
:1026B000FFF72AFF3C4890F82F00012812D13D482F
:1026C000007B022804D101210520FFF71DFF09E04E
:1026D0003848007B012805D101213648817302204A
:1026E00034490873304890F82C0001281FD12E4837
:1026F00090F82600012804D101210320FFF704FFF0
:1027000050E0294890F82B00012804D10121042031
:10271000FFF7FAFE46E0244890F82D00012841D149
:102720000020254908770021224881733AE01E489D
:1027300090F82D00012835D11B4890F82F00012872
:1027400007D100210520FFF7DFFE00211948817322
:1027500028E0154890F82600012804D10021032024
:10276000FFF7D2FE1EE0104890F82B00012804D19C
:1027700000210420FFF7C8FE14E00B4890F8300059
:10278000012804D100210620FFF7BEFE0AE006481A
:1027900090F82C00012805D1002007490877002176
:1027A0000448817310BD0000A0020020A00000209A
:1027B0009E000020180200202C01002010B50248C5
:1027C00001F0A2F910BD0000A81B002010B50248BE
:1027D00001F09AF910BD0000281D002010B5024834
:1027E00001F092F910BD0000481B002010B502480E
:1027F00001F08AF910BD0000881D002010B50248C4
:1028000001F082F910BD0000681C002010B50248DC
:1028100001F07AF910BD0000E81A0020014608789E
:1028200010381823B0FBF3F20848805CC865032A0F
:1028300005D908686FF30900001D886503E0086882
:102840006FF309008865886D7047000050C200086A
:10285000014600208A6A8B6903BB32B1012A0CD081
:10286000022A10D0032A17D115E0CB6A03F0807337
:10287000B3F1807F00D101200FE0CB6AB3F1C07FBC
:1028800000D1012009E0CB6A03F08073B3F1807FAF
:1028900000D1012001E000E000BF35E08B69B3F515
:1028A000005F1BD132B1012A06D0022A0CD0032AC4
:1028B00012D10BE0012010E0CB6A03F08073B3F17A
:1028C000807F00D1012008E0012006E0CB6AB3F14F
:1028D000C07F00D1012000E000BF15E032B1012A25
:1028E00005D0022A04D0032A0CD103E000BF00BFA8
:1028F000012008E0CB6A03F08073B3F1807F00D140
:10290000012000E000BF00BF704730B504682468B4
:1029100024F4802405682C60046863608468402C7B
:1029200004D10468A2600468E16003E00468A16067
:102930000468E26030BD704710B5012001F008FB6B
:1029400010BD10B54FF4805001F002FB10BD10B562
:10295000042001F0FDFA10BDAFF203010160064949
:102960004160002180F8281080F829109FED030AAB
:1029700080ED0B0A704700004D2D0008000000009C
:1029800000BFFEE70FB49DF82A00C0B10F480078E1
:10299000A8B90F48007838B903210E4880F8B5105F
:1029A00001200B4908700AE009480078012806D187
:1029B0000021084880F8B5100020054908709DF8EE
:1029C0002A000249087004B0704700004D00002042
:1029D0004E0000202C0100200FB410B52DED0A8B05
:1029E0001A9C207F01287CD0964890ED000ADFEDEC
:1029F000960AB4EE600AF1EE10FA73D10CA8007BCF
:102A000001280CD0B520005D012808D0B520005D5C
:102A1000022804D09FED8D0A84ED340A03E09FED77
:102A20008C0A84ED340ABDF83A00D0B1BDF83A0002
:102A3000FDF784FD41EC1A0B9FED860B53EC102B38
:102A4000FDF795FC41EC190B9FED840B53EC102B1B
:102A5000FDF705FD41EC180BFDF7C0FDC4F8B8000B
:102A600003E09FED800A84ED2E0ABDF8380010B314
:102A7000BDF83800FDF762FD41EC1B0B9FED750BB7
:102A800053EC102BFDF773FC41EC1A0B9FED760B0A
:102A900053EC102BFDF771FC41EC190B9FED6F0B04
:102AA00053EC102BFDF7DBFC41EC180BFDF796FD0A
:102AB000BC21085103E09FED6B0A84ED2F0ABDF89D
:102AC000340048B3BDF83400FDF738FD41EC1C0B71
:102AD0009FED600B53EC102BFDF749FC41EC1B0BF9
:102AE00001E0A9E01DE081F0004141EC1A0B9FEDEF
:102AF0005B0B53EC102BFDF7B2FC41EC190B9FED77
:102B00005C0B53EC102BFDF738FC41EC180BFDF778
:102B100065FDC42108518FE09FED520A84ED310A12
:102B20008AE00CA8007B01280CD0B520005D0128AC
:102B300008D0B520005D022804D09FED440A84ED42
:102B4000340A03E09FED420A84ED340ABDF83A00EE
:102B5000D0B1BDF83A00FDF7F1FC41EC1A0B9FED46
:102B60003D0B53EC102BFDF702FC41EC190B9FEDD4
:102B70003B0B53EC102BFDF772FC41EC180BFDF7EF
:102B80002DFDC4F8B80003E09FED360A84ED2E0A4F
:102B9000BDF8380010B3BDF83800FDF7CFFC41ECAC
:102BA0001B0B9FED2C0B53EC102BFDF7E0FB41ECC6
:102BB0001A0B9FED310B53EC102BFDF7DEFB41ECB4
:102BC000190B9FED260B53EC102BFDF748FC41EC45
:102BD000180BFDF703FDBC21085103E09FED210A0E
:102BE00084ED2F0ABDF8340010B3BDF83400FDF7B2
:102BF000A5FC41EC1B0B9FED170B53EC102BFDF7C5
:102C0000B6FB41EC1A0B9FED150B53EC102BFDF7A7
:102C100026FC41EC190B9FED1A0B53EC102BFDF722
:102C2000ACFB41EC180BFDF7D9FCC421085103E0C3
:102C30009FED0C0A84ED310ABDEC0A8B10BC5DF8E7
:102C400014FB00002C010020000034430000FA4572
:102C500000007A45000000000000904000000000E5
:102C600000A0844000000000000000403333F3BFA8
:102C70000000000000806640000000403333F33F56
:102C80000000000000006E4003B51048807B012862
:102C90001AD09DF80000032816D19DF801000228E3
:102CA00003D10020094A10730EE09DF801000328AB
:102CB00003D10120054A107306E09DF801000128A8
:102CC00002D10220014A10730CBD0000180200203E
:102CD00002469FED0C1AF0EE410A002009E002EBDB
:102CE000800393ED001A31EE201AF0EE410A431CE6
:102CF00098B28842F3DB01EE101AB8EE411A80EE6A
:102D0000810A70470000000000214278012A01D1A9
:102D100041F001018278012A01D141F00201C2781B
:102D2000012A01D141F004010279012A01D141F0C7
:102D300008014279012A01D141F010018279012A6A
:102D400001D141F0200101707047000090F8282067
:102D500002BB10F8292F521C027010F82929322AC0
:102D600003DD012280F8282011E04A6B527D4B6B75
:102D70001B7D42EA03224285428D00EE102AB8EE06
:102D8000400ADFED380A80EE201A80ED0E1A428DDF
:102D9000828366E04A6B527D4B6B1B7D42EA0322C5
:102DA00042834A6BD37D927D43EA022212B200EE47
:102DB000102AB8EEC00A80ED030A90ED030A80EDF8
:102DC000020A90ED040A80ED050A4A6B537E127EDA
:102DD00043EA022212B200EE102AB8EEC00A80EDD9
:102DE000040A4A6B927E0276428B838BD21AB2F52A
:102DF000805F08DD90ED0B0AF7EE000A30EE600A06
:102E000080ED0B0A0DE0428B838BD21A12F5805FA6
:102E100007DA90ED0B0AF7EE000A30EE200A80ED9B
:102E20000B0A428B00EE102AF8EE400A9FED0D1AB5
:102E300080EE810AD0ED0B0A30EE200A80ED0D0AFB
:102E4000428B00EE102AB8EE400AD0ED0B0A9FED3F
:102E5000051A00EE810ABDEEC00A80ED0C0A428B15
:102E6000828370470000004610B58CB004460C48C1
:102E700005F0F1F80B4800682822094910310A9042
:102E80006846FDF7AFF906480FC8FFF77BFD231D25
:102E90000348001D07C805F03EFE0CB010BD000041
:102EA000A0020020440000200246DFED181AB0EE18
:102EB000611A002009E002EB8003D3ED001A71EEE5
:102EC000811AB0EE611A431C98B28842F3DB01EE1E
:102ED000901AF8EE611AC1EE210A002013E002EB0D
:102EE0008003D3ED001A71EEE01A21EEA12A01EE63
:102EF000901AF8EE612AC2EE221A71EE801AB0EE34
:102F0000610A431C98B28842E9DB70470000000068
:102F100030B5034613B94FF6FF7030BD09E013F822
:102F2000014B82EA0400C0B2054D35F8100080EA7A
:102F30002222081EA1F10101F1D11046EDE70000A7
:102F40008AC3000830B5034605E013F8010B80EA98
:102F500002040448025D081EA1F10101F5D11046EA
:102F600030BD000089C2000870B5049C012C26D138
:102F7000404D2D886D1C3F4E358035462D881E2DC9
:102F800001D10025358090ED000A3B4D394E368841
:102F900005EB860585ED000A91ED000A374D354EAB
:102FA000368805EB860585ED000A92ED000A344D62
:102FB000304E368805EB860585ED000A58E01E2B5D
:102FC0000CDB9FED300A80ED000A9FED2E0A81EDAB
:102FD000000A9FED2C0A82ED000A49E0254D2D885C
:102FE000AB421EDA234D2D88ED1A234E06EB8505E4
:102FF00095ED000A80ED000A1E4D2D88ED1A1F4E3A
:1030000006EB850595ED000A81ED000A194D2D8826
:10301000ED1A1B4E06EB850595ED000A82ED000AC0
:1030200026E0C3F11E05134E368835446D1E124E40
:1030300006EB850595ED000A80ED000AC3F11E053B
:103040000C4E368835446D1E0C4E06EB850595ED0D
:10305000000A81ED000AC3F11E05064E368835448C
:103060006D1E074E06EB850595ED000A82ED000A00
:1030700070BD000018010020880400200005002019
:10308000780500200000000030B5034600220C7DCA
:10309000012000FA04F24648006840F00100444C68
:1030A00020602046006820F47C50206020460068A4
:1030B0004C6A40EA04203E4C20603D481C300068C9
:1030C00090433B4C1C342060C869D8B938480C3058
:1030D00000689043364C0C342060888880B28C891C
:1030E00040EA0444324840304D6940F83540088891
:1030F00080B20C8940EA04442D4840304D6900EB11
:10310000C5004460C86901281BD129480C300068FB
:103110001043274C0C342060888880B20C8840EA29
:103120000444234840304D6940F83540888980B2D6
:103130000C8940EA04441E4840304D6900EBC5004C
:103140004460886938B91A48001D00689043184CDB
:10315000241D206006E01648001D00681043144C32
:10316000241D2060086930B911481430006890436C
:103170000F4C143420600869012806D10C48143023
:10318000006810430A4C14342060086A012806D1F4
:1031900007481C3000681043054C1C34206004486C
:1031A000006820F00100024C2060002030BD0000CB
:1031B00000660040704700002DE9F04104460025FC
:1031C000002600272068406900F0010018B320683D
:1031D000806869490840884201D1012000E0002050
:1031E00005462068806865490840884201D1012071
:1031F00000E0002006462068806861490840884257
:1032000001D1012000E0002007460DB906B917B131
:103210002046FDF7CDFF2068C06800F00305206858
:103220004069C0F3400625B11EB100212046FDF7DC
:10323000E9FE2068006900F0030520684069C0F3DA
:10324000001625B11EB101212046FDF7DBFE2068E6
:10325000806900F0010520684069C0F300262068FD
:103260004069C0F3C0372DB126B11FB1E06B40F00B
:103270000100E06320688069C0F340052068406970
:10328000C0F3402620684069C0F3C0372DB126B195
:103290001FB1E06B40F00200E06320688069C0F37A
:1032A000800520684069C0F3802620684069C0F32B
:1032B000C0372DB126B11FB1E06B40F00400E063D0
:1032C0002068806900F0700008B9012000E000204B
:1032D000054620684069C0F3C02620684069C0F3F5
:1032E000C03795BB8EB387B32068806900F0700546
:1032F000402D1BD006DC102D09D0202D0CD0302DF8
:1033000024D10EE0502D16D0602D1FD118E0E06BB7
:1033100040F00800E0631AE0E06B40F01000E0636A
:1033200015E0E06B40F02000E06310E0E06B40F05F
:103330004000E0630BE0E06B40F08000E06306E0FB
:10334000E06B40F48070E06301E007E000BF00BF85
:103350002068806920F0700021688861E06B40B1CE
:10336000042021684860012084F838002046FFF7D7
:1033700021FFBDE8F0810000030000040003000805
:103380000000031070B50446032600250CB9012087
:1033900070BD94F8380028B9002084F83900204620
:1033A00000F0D0F8022084F838002068006820F08F
:1033B0000200216808602068006840F00100216870
:1033C000086000F0EFFE05460EE000F0EBFE401B4B
:1033D0000A2809D9032084F8380000BF002084F8A7
:1033E000390000BF0320D3E72068406800F00100E7
:1033F0000028EAD02068406800F0010008B90026E3
:1034000092E0A069012806D12068006840F08000A1
:103410002168086005E02068006820F080002168CD
:103420000860E069012806D12068006840F040008B
:103430002168086005E02068006820F040002168ED
:103440000860206A012806D12068006840F020004A
:103450002168086005E02068006820F020002168ED
:103460000860606A012806D12068006840F01000FA
:103470002168086005E02068006820F010002168DD
:103480000860A06A012806D12068006840F00800A2
:103490002168086005E02068006820F008002168C5
:1034A0000860E06A012806D12068006840F0040046
:1034B0002168086005E02068006820F004002168A9
:1034C0000860D4E90201084321690843616908439F
:1034D0006168491E08432168C8612068006820F0BF
:1034E00001002168086000F05DFE05460EE000F076
:1034F00059FE401B0A2809D9032084F8380000BF70
:10350000002084F8390000BF032041E720684068AC
:1035100000F001000028EAD12068406800F00100B6
:1035200008B1002600E00126012E06D10020E0634C
:10353000012084F8380000202AE7042084F83800AD
:10354000012025E710B586B0044645492068884229
:1035500037D144480068401C42490860084600686A
:1035600001280FD100BF002000903F48006840F0C4
:1035700000703D4908600846006800F00070009047
:1035800000BF00BF032001900220029000200390A2
:10359000032004900920059001A9344800F0E6FCBE
:1035A00001221146132000F0C2FE132000F0B2FEEB
:1035B00001221146142000F0BAFE142000F0AAFEE9
:1035C0004BE02B492068884247D100BF0020009083
:1035D0002548006840F0806023490860084600687C
:1035E00000F08060009000BF00BF1E480068401CD3
:1035F0001C4908600846006801280FD100BF002060
:1036000000901948006840F00070174908600846AB
:10361000006800F00070009000BF00BF4FF4405001
:1036200001900220029000200390032004900920C2
:10363000059001A90F4800F099FC012211463F2096
:1036400000F075FE3F2000F065FE0122114640208B
:1036500000F06DFE402000F05DFE06B010BD0000E1
:10366000006400402401002040380240000C024069
:10367000006800400004024010B50246002392F8A2
:103680003830012B01D0122B49D100BF92F83900FC
:10369000012801D1022010BD012082F8390000BFAD
:1036A00092F83800122803D1322082F8380002E064
:1036B000222082F838000020D0631068406940F46E
:1036C0008070146860611068406940F4007014688C
:1036D00060611068406940F480601468606110683F
:1036E000406940F40060146860611068406940F40B
:1036F00000401468606100BF002082F8390000BFFC
:1037000031B91068406940F002001468606108E057
:103710001068406940F010001468606101E0022008
:10372000B9E70020B7E7000070B504463548844289
:103730002FD1606B0068A0F2012006281CD2DFE8C0
:1037400000F003040506070800BF00BF00BF00BF6C
:1037500000BF0025606B0068A0F2012505EB450164
:10376000294B03EBC111081D05EB450103EBC1110A
:103770008A682146904700BF00BF22480068406920
:1037800040F002001F490968486101201F49087084
:1037900037E01F48844234D11C480078012830D1DA
:1037A000606B0068A0F20120A0B1012818D00228A7
:1037B00002D005281CD105E0164821468268001D6C
:1037C000904715E013482146D0F8882100F5C270D3
:1037D00090470DE0104821468268001D904707E0A1
:1037E0000D482146D0F8882100F5C270904700BFEF
:1037F00000BF07480068406940F0020004490968BA
:10380000486170BDAC150020FC050020F6000020CA
:10381000EC150020FC110020FC0E00202DE9F041E9
:1038200004460E46052500272068806800F0806069
:10383000B0F1806F0DD02068806800F00060B0F1BA
:10384000006F06D02068806800F08050B0F1805F83
:103850007ED100BF94F83900012802D10220BDE8D2
:10386000F081012084F8390000BF94F83800222844
:1038700003D1322084F8380002E0122084F83800A6
:103880002068806800F08060B0F1806F01D1002571
:1038900009E02068806800F00060B0F1006F01D19D
:1038A000012500E00225206800F5C07000EB05103E
:1038B000006800F00101206800F5C07000EB051001
:1038C0000160206B806898B9206800F5C07000EB3B
:1038D00005100068216BC968226B128841EA4251C9
:1038E0000843216801F5C07101EB0511086015E07E
:1038F000206800F5C07000EB05100068216B896836
:10390000226B526841EAC201226BD268114308431C
:10391000216801F5C07101EB05110860206B007C86
:1039200000F00F00216B0861206800F5C07000EB0B
:103930000510406820F00F01206800F5C07000EB12
:1039400005104160206800F5C07000EB051000E034
:1039500088E04068216B09690843216801F5C0715E
:1039600001EB05114860206BC07D0106206B807D56
:1039700041EA0041206B407D41EA0020216B097D36
:103980000843216801F5C07101EB05118860206BC7
:10399000C07E0106206B807E41EA0041206B407EA4
:1039A00041EA0020216B097E0843216801F5C071BE
:1039B00001EB0511C860206800F5C07000EB051030
:1039C000006840F00101206800F5C07000EB0510B0
:1039D000016000F0E7FB074611E0701C78B126B1EA
:1039E00000F0E0FBC01BB04209D9032084F8380086
:1039F00000BF002084F8390000BF03202FE74DB935
:103A0000206880681A490840884201D1012016E0E8
:103A1000002014E0012D09D1206880681549084074
:103A2000884201D101200AE0002008E02068806877
:103A300011490840884201D1012000E000200028FF
:103A4000CBD094F83800322803D1222084F83800F3
:103A500002E0012084F8380000BF002084F839001B
:103A600000BFFCE6042084F838000120F7E60000DF
:103A70000300000400030008000003107047014623
:103A800091F83500022803D0802048650120704756
:103A9000052081F835000868006820F001000A68F8
:103AA00010600020F3E770B504460CB9012070BD2A
:103AB00094F83500022800D1F9E72068006820F06A
:103AC00001002168086000202168086021684860C2
:103AD000216888602168C860216808612120216808
:103AE00048612046FEF79AFE054694F85C103F2098
:103AF0008840A8600020606584F8350000BF84F825
:103B0000340000BF00BFD2E7F8B5044600200090A3
:103B10008D4800684FF41651B0FBF1F7A56D2E6883
:103B200094F85C1008208840304098B12068006804
:103B300000F0040070B12068006820F004002168E3
:103B4000086094F85C1008208840A860606D40F020
:103B50000100606594F85C107C488840304068B192
:103B60002068406900F0800040B194F85C1077480C
:103B70008840A860606D40F00200606594F85C10B9
:103B80007248C01C8840304070B12068006800F066
:103B9000020048B194F85C106C48C01C8840A860D2
:103BA000606D40F00400606594F85C10102088405F
:103BB000304078B32068006800F0080050B394F8F3
:103BC0005C1010208840A8602068006800F4802005
:103BD00080B12068006800F4002028B9206CC8B1CA
:103BE0002046216C884715E0A06C98B12046A16C56
:103BF00088470FE02068006800F4807028B92068CA
:103C0000006820F0080021680860206C10B1204690
:103C1000216C884794F85C102020884030400028B0
:103C200065D02068006800F0100000285FD094F88C
:103C30005C1020208840A86094F83500052828D121
:103C40002068006820F0160021680860206840693C
:103C500020F0800021684861206C08B9A06C28B170
:103C60002068006820F008002168086094F85C1063
:103C70003F208840A86000BF002084F8340000BFC7
:103C8000012084F83500206D10B12046216D884751
:103C9000F8BD2068006800F4802080B120680068CA
:103CA00000F4002028B9606C10B12046616C884790
:103CB0001DE0E06BD8B12046E16B884717E0206833
:103CC000006800F4807068B92068006820F0100077
:103CD0002168086000BF002084F8340000BF012084
:103CE00084F83500E06B10B12046E16B8847606DC9
:103CF00038B3606D00F00100F0B1052084F83500A4
:103D00002068006820F001002168086000BF00986A
:103D1000401C0090B84200D905E02068006800F01F
:103D200001000028F3D100BF00BF002084F8340058
:103D300000BF012084F83500E06C10B12046E16C32
:103D4000884700BFA4E700000800002001008000B1
:103D50002DE9F0410446002500F024FA074614B985
:103D60000120BDE8F081606A00B100BF00BF002003
:103D700084F8340000BF022084F835002068006811
:103D800020F00100216808600AE000F00BFAC01B77
:103D9000052805D920206065032084F83500E0E778
:103DA0002068006800F001000028EED12068056856
:103DB00020480540D4E901010843E168084321692E
:103DC000084361690843A1690843E1690843216A1E
:103DD00008430543606A042803D1D4E90B01084372
:103DE0000543206805602068456925F00705606A7D
:103DF0000543606A04280BD1A06A05432046FEF7FC
:103E000027FD28B140206065012084F83500A8E72F
:103E1000206845612046FEF701FD064694F85C10D7
:103E20003F208840B06000206065012084F83500A4
:103E3000002096E73F8010F02DE9F04704460D463C
:103E400016461F464FF00008D4F8589000BF94F86B
:103E50003400012802D10220BDE8F087012084F857
:103E6000340000BF94F8350001282BD1022084F8DB
:103E70003500002060653B46324629462046FEF765
:103E800044FD94F85C103F208840C9F80800206881
:103E9000006840F01600216808602068406940F022
:103EA000800021684861206C28B12068006840F0DB
:103EB0000800216808602068006840F0010021685F
:103EC000086006E000BF002084F8340000BF4FF017
:103ED00002084046C0E731B5002400F063F904460B
:103EE00000BF00F05FF9001B00998842F9D338BD8C
:103EF00010B50446B4F5805F04D10121114880F863
:103F000024101DE0012C1BD101210E4880F8251042
:103F10000D48007840B9012209020C4800F03CF934
:103F20000120094908700BE007480078012807D1F3
:103F300000220102054800F02FF900200249087014
:103F400010BD000018020020FB00002000180240F5
:103F500010B5044604480068204020B102480460BF
:103F60002046FFF7C5FF10BD143C0140F8B50246DE
:103F70000B460025002400200021E6E0012606FA79
:103F800001F51E6806EA0504AC4273D15E68022E94
:103F900002D05E68122E13D1CF0802F1200656F827
:103FA00027004E07F70E0F26BE40B0434F07FF0E07
:103FB0001E69BE403043CF0802F1200646F82700B4
:103FC00010684F000326BE40B0431E7906F003067A
:103FD0004F00BE40304310605E68012E08D05E681E
:103FE000022E05D05E68112E02D05E68122E13D10B
:103FF00090684F000326BE40B0434F00DE68BE40CD
:1040000030439060506801268E40B0431E79C6F35D
:1040100000168E4030435060D0684F000326BE40EB
:10402000B0434F009E68BE403043D0605E6806F0EB
:104030008056B6F1805FA8D100BF00260096454E9D
:10404000366846F48046434F3E603E46366806F486
:104050008046009600BF00BF3F4E8F0856F82700ED
:104060008E07370F0F26BE40B0433C4EB24202D1FE
:1040700000262EE068E03A4EB24201D1012628E047
:10408000384EB24201D1022623E0374EB24201D16E
:1040900003261EE0354EB24201D1042619E0344E0B
:1040A000B24201D1052614E0324EB24201D10626B9
:1040B0000FE0314EB24201D107260AE02F4EB24244
:1040C00001D1082605E02E4EB24201D1092600E0BA
:1040D0000A268F073F0FBE4030431F4E8F0846F819
:1040E0002700284E3068A0435E6806F48036B6F597
:1040F000803F00D12043234E3060361D3068A043FE
:104100005E6806F40036B6F5003F00D120431D4E30
:10411000361D3060361D3068A0435E6806F4801698
:10412000B6F5801F00D12043164E08363060361D8C
:104130003068A0435E6806F40016B6F5001F00D193
:104140002043104E0C363060491C1029FFF416AF86
:10415000F8BD000044380240083801400000024029
:104160000004024000080240000C0240001002401F
:104170000014024000180240001C024000200240CF
:1041800000240240003C0140024613690B400BB181
:10419000012000E0002070470AB1816101E00B04BA
:1041A00083617047014800687047000000000020EC
:1041B00002480068401C0149086070470000002068
:1041C00010B50D48006840F400700B4908600846BF
:1041D000006840F4806008600846006840F4807021
:1041E0000860032000F0E2F8002000F007F800F07B
:1041F00019F8002010BD0000003C024070B50446D4
:10420000074800684FF47A71B0FBF1F5284601F0D9
:10421000FBFA00222146501E00F089F8002070BDF4
:104220000800002010B5052000F0C0F8002211465B
:104230006FF00B0000F07BF8002211466FF00A00CF
:1042400000F075F8002211466FF0090000F06FF8D9
:1042500000221146501F00F06AF800221146101F7C
:1042600000F065F800221146901E00F060F8002270
:104270001146501E00F05BF810BD70B504460D46A7
:1042800016460CB9012070BD94F8390028B90020F9
:1042900084F83800204602F05DF8242084F83900C4
:1042A0002068C06820F400502168C860204604F0EF
:1042B000F7FF2068006920F49040216808612068B9
:1042C000406920F02A00216848612068006920F0D8
:1042D0000F0021680861206800692843216808618F
:1042E0002068C06820F400602168C8602068C06849
:1042F00030432168C8602068C06840F400502168DD
:10430000C8600020E063202084F8390084F83A0077
:104310000020B8E700BF00F01F02012191404209D0
:10432000920002F1E022C2F8001100BF70472DE9AF
:10433000F05F80460D461646002703F0DDFA07467B
:1043400039462A46334601F00700C0F1070ABAF1A0
:10435000040F02D94FF0040A01E0C0F1070AD14668
:1043600000F1040ABAF1070F02D24FF0000A01E08F
:10437000A0F1030AD4464FF0010A0AFA09FAAAF199
:10438000010A0AEA020A0AFA0CFA4FF0010B0BFAC8
:104390000CFBABF1010B0BEA030B4AEA0B042146C1
:1043A000404603F0B1FABDE8F09F000000BF00F006
:1043B0000702064B19684FF6FF031940044B0B43E5
:1043C00043EA0221014B196000BF70470CED00E089
:1043D0000000FA0500BF00BF00BF00BF00BFBFF371
:1043E0004F8F00BF00BF00BF0948006800F4E060C5
:1043F00008490843001D0649086000BF00BF00BF10
:10440000BFF34F8F00BF00BF00BF00BF00BFFDE77D
:104410000CED00E00000FA0510B50446D4F8B40332
:1044200005F08AFB10BD70B504460D46C5EBC5030B
:1044300004F1380101EB8301CA682946D4F8B403BA
:1044400005F0CAFA70BD70B504460D46C5EBC5034C
:1044500004F5EE7101EB8301CA682946D4F8B40370
:1044600005F027FB70BD10B50446D4F8B40305F081
:1044700066FB10BD70B504460D4605F0800080282F
:1044800008D105F07F00C0EBC00104F1380000EB5B
:10449000810605E0C5EBC50104F5EE7000EB810671
:1044A0000020B07005F07F003070C5F3C010707050
:1044B00000BF94F88003012801D1022070BD0120C3
:1044C00084F8800300BF3146206805F087FF00BFF5
:1044D000002084F8800300BF00BFEFE72DE9F0471C
:1044E00005460E4690461F464FF0000906F0800034
:1044F000802808D106F07F00C0EBC00105F138002C
:1045000000EB810407E006F07F00C0EBC00105F579
:10451000EE7000EB810406F07F00207006F0800052
:10452000C0096070C4F80880E770607808B120782E
:10453000E080022F01D10020207100BF95F8800398
:10454000012802D10220BDE8F087012085F8800310
:1045500000BF2146286805F0C3FD00BF002085F894
:10456000800300BF4846EEE72DE9F04104460E46C1
:104570001746984606F07F00C0EBC00104F5EE70C8
:1045800000EB8105EF60C5F814800020A861687019
:1045900006F07F0028702069012800D12F6100BF3C
:1045A00094F88003012802D10220BDE8F0810120A7
:1045B00084F8800300BF06F07F0028B9227C2946DA
:1045C000206805F011FE04E0227C2946206805F0F1
:1045D0008FFF00BF002084F8800300BF00BFE4E726
:1045E00070B504460D4605F08000802808D105F01E
:1045F0007F00C0EBC00104F1380000EB810605E04C
:10460000C5EBC50104F5EE7000EB81060120B0702A
:1046100005F07F003070C5F3C010707000BF94F8D3
:104620008003012801D1022070BD012084F880039D
:1046300000BF3146206805F015FF05F07F0028B95E
:10464000217C04F56172206805F0A6FE00BF002001
:1046500084F8800300BF00BFE6E72DE9F04104467F
:104660000E461746984606F07F00C0EBC00104F1E5
:10467000380000EB8105EF60C5F814800020A861C8
:104680000120687006F07F0028702069012800D1A1
:104690002F6100BF94F88003012802D10220BDE8F9
:1046A000F081012084F8800300BF06F07F0028B964
:1046B000227C2946206805F097FD04E0227C2946EB
:1046C000206805F015FF00BF002084F8800300BFBC
:1046D00000BFE4E72DE9FC5F044626684FF0000BBD
:1046E000002001908146002500908046F74F206809
:1046F00006F0A0F800286CD1206806F0D3F808B9BD
:10470000BDE8FC9F206806F0CDF800F0020002280A
:1047100005D12068406900F00200216848612068E6
:1047200006F0C0F800F40020B0F5002F7ED100257F
:10473000206806F08DF8019075E0019800F0010006
:1047400000286CD0E9B2206806F0A1F8814609F093
:104750000100E8B3012106F5306000EB45108160EF
:10476000206901282BD1C5EBC50104F5EE7000EBE3
:104770008100816806F5306000EB45100069C0F3E8
:104780001200091AC5EBC50204F5EE7000EB8200B9
:104790008161C5EBC50104F5EE7000EB8100C5EB4E
:1047A000C502C16804F5EE7000EB82008068014428
:1047B000C5EBC50204F5EE7000EB8200C160E9B202
:1047C0002046FFF740FE2069012811D105B901E01C
:1047D0000EE0B2E2C5EBC50104F5EE7000EB81001E
:1047E000406928B904F561720121206805F0D4FD03
:1047F00009F00800082808D1204600F007FB08212E
:1048000006F5306000EB4510816009F010001028BB
:1048100005D1102106F5306000EB451081606D1C5C
:104820000198400801900198002800E000E084D140
:10483000206806F037F800F48020B0F5802F7DD195
:10484000206805F0FCFF0190002585E0019800F04C
:10485000010000287CD0E9B2206806F002F8814609
:1048600009F00100F0B30120A840009040F63400A8
:1048700080590099884340F634018851012106F59A
:10488000106000EB451081602069012815D1C5EB4F
:10489000C50104F1380000EB8100C5EBC502C16819
:1048A00004F1380000EB820080680144C5EBC502CA
:1048B00004F1380000EB8200C160E9B22046FFF746
:1048C000B2FD2069012810D165B9C5EBC50104F11D
:1048D000380000EB8100406920B904F561720121C4
:1048E000206800E001E005F057FD09F00800082805
:1048F00005D1082106F5106000EB4510816009F034
:104900001000102805D1102106F5106000EB4510AD
:10491000816009F04000402805D1402106F5106073
:1049200000EB4510816009F00200022805D1022148
:1049300006F5106000EB4510816001E010E007E033
:1049400009F08000802803D12946204602F0F8FFB4
:104950006D1C019840080190019800287FF476AF03
:10496000206805F09FFF00F00040B0F1004F10D12B
:1049700040F60400805920F0010140F60400815106
:10498000204600F01CFA2068406900F000402168D1
:104990004861206805F086FF00F40060B0F5006F04
:1049A0000ED140F60800805900F0010010B12046F9
:1049B00000F036FA2068406900F400602168486120
:1049C000206805F06FFF00F48050B0F5805F5CD187
:1049D00040F60400805920F0010140F604008151A6
:1049E0000021206805F0ECFE4FF0000B0CE0FF21E9
:1049F00006F5106000EB4B10816006F5306000EBAF
:104A00004B1081600BF1010B60685845EFD84FF0F7
:104A1000FF3140F618008151001D805940F001110E
:104A200040F61C008151206B70B1D6F8840840F02C
:104A30000B01C6F8841840F64400805940F00B0181
:104A400040F6440081510EE040F61400805940F0D9
:104A50000B0140F614008151001F805940F00B01FA
:104A60004FF401608151D6F8000820F4FE60C6F8CA
:104A70000008217C04F56172206805F08DFC206837
:104A8000406900F4805021684861206805F00AFF01
:104A900000F40050B0F5005F6FD1206805F082FB94
:104AA0002068C06820F470502168C860206805F054
:104AB0009FFE68B90021E1604FF4007161612068D8
:104AC000C06840F410502168C86084E00095BA0ABC
:104AD0000321E1604021616100F0A4FA0746984893
:104AE000874209D39748874206D22068C06840F4BD
:104AF00070502168C8606EE09248874209D392489E
:104B0000874206D22068C06840F460502168C860BF
:104B100061E08D48874209D38C48874206D22068DD
:104B2000C06840F450502168C86054E0874887420C
:104B300009D38748874206D22068C06840F44050B5
:104B40002168C86047E08248874209D3814887428C
:104B500006D22068C06840F430502168C8603AE04E
:104B60007C4887420AD37C48874207D22068C068C5
:104B700040F420502168C8602DE035E07648874237
:104B800009D37648874206D22068C06840F41050A6
:104B90002168C8601FE07148874209D37048874286
:104BA00006D22068C06840F400502168C86012E056
:104BB0006B48874209D36B48874206D22068C06899
:104BC00040F4E0502168C86005E02068C06840F407
:104BD000C0502168C860204600F0D8F820684069BD
:104BE00000F4005021684861206805F05BFE00F089
:104BF0001000102845D12068806920F0100021683D
:104C00008861D6F8208008F00F00C0EBC00104F5E1
:104C1000EE7000EB810AC8F3434002281AD147F630
:104C2000F07008EA000030B3C8F30A123046DAF830
:104C30000C1005F03DFEC8F30A11DAF80C00084428
:104C4000CAF80C00C8F30A11DAF818000844CAF8C8
:104C5000180010E0C8F3434006280CD1082204F5E0
:104C60006171304605F024FEC8F30A11DAF8180025
:104C70000844CAF818002068806940F010002168D4
:104C80008861206805F00EFE00F00800082808D1B1
:104C9000204600F09BF82068406900F00800216879
:104CA0004861206805F0FEFD00F48010B0F5801F1B
:104CB00009D1E9B2204600F057F82068406900F4B5
:104CC000801021684861206805F0ECFD00F40010B8
:104CD000B0F5001F09D1E9B2204600F04EF8206877
:104CE000406900F4001021684861206805F0DAFD91
:104CF00000F08040B0F1804F08D12046FFF78CFBD8
:104D00002068406900F0804021684861206805F013
:104D1000C9FD00F0040004280FD12068D0F80480F9
:104D200008F00400042802D12046FFF79CFB20680D
:104D3000406840EA08002168486000BFE0E40000E5
:104D4000C0ACD800C0E1E4000024F4008073060188
:104D5000A0491A01002D310140A44C0100366E011A
:104D600020ABA6010048E80170B504460D4629466F
:104D7000D4F8B40304F00CFF70BD70B504460D46C2
:104D80002946D4F8B40304F006FF70BD70B504469C
:104D90000125E06810B1022804D101E0002503E0FC
:104DA000012501E0012500BF00BF2946D4F8B40366
:104DB00004F04EFFD4F8B40304F010FF70BD10B53A
:104DC0000446D4F8B40304F02BFF10BD10B504461C
:104DD000D4F8B40304F02BFF10BD70B504460D46A3
:104DE00000BF94F88003012801D1022070BD01208A
:104DF00084F8800300BF2946206805F06AFD00BFE3
:104E0000002084F8800300BF00BFEFE710B5044620
:104E100004F56171D4F8B40304F028FF10BD00005C
:104E200010B50446D4F8B40304F061FF2068D0F84C
:104E3000000E40F001002168C1F8000E206A28B180
:104E40000348006840F006000149086010BD0000FA
:104E500010ED00E070B504460D4600266D48006870
:104E600000F00F00A84209D26A490D700846006898
:104E700000F00F00A84201D0012070BD207800F0A2
:104E80000200022807D16448006820F0F000A16801
:104E9000084361490860207800F00100002877D0BD
:104EA0006068012807D15C4808380068C0F34040BA
:104EB000B8B90120E1E76068022802D060680328E1
:104EC00007D1554808380068C0F3406048B9012050
:104ED000D3E7514808380068C0F3400008B9012002
:104EE000CBE74D48006820F00300616808434A4959
:104EF0000860FFF757F906466068012810D108E0FE
:104F0000FFF750F9801B41F28831884201D9032014
:104F1000B3E74148006800F00C000428F0D137E006
:104F20006068022810D108E0FFF73CF9801B41F2CD
:104F30008831884201D903209FE73748006800F094
:104F40000C000828F0D123E06068032810D108E0A5
:104F5000FFF728F9801B41F28831884201D90320EC
:104F60008BE72D48006800F00C000C28F0D10FE012
:104F700008E0FFF717F9801B41F28831884201D918
:104F800003207AE72448006800F00C000028F0D1E4
:104F90002048006800F00F00A84209D91D490D7093
:104FA0000846006800F00F00A84201D0012064E725
:104FB000207800F00400042807D11748006820F486
:104FC000E050E168084314490860207800F00800C8
:104FD000082808D11048006820F46040216940EAA0
:104FE000C1000D49086000F04FF80B49096801F055
:104FF000F001F02292FAA2F2B2FA82F2D140074A0C
:10500000515CC840064908600020FFF7F7F800200F
:1050100033E70000003C02400838024040C200086C
:1050200008000020014800687047000008000020C8
:1050300000B5FFF7F7FF0749096801F4E0514FF4A5
:10504000E05292FAA2F2B2FA82F2D140024A515CE4
:10505000C84000BD0838024040C2000800B5FFF754
:10506000E1FF0749096801F460414FF4604292FA98
:10507000A2F2B2FA82F2D140024A515CC84000BDAD
:105080000838024040C2000870B500210022002309
:105090000020274C246804F00C0424B1042C04D014
:1050A000082C41D103E0234840E023483EE0204C57
:1050B000241F246804F03F011D4C241F246804F4BD
:1050C000800484B11C4CB4FBF1F5194C241F2468F6
:1050D00047F6C076344096FAA6F6B6FA86F6F4405D
:1050E00005FB04F20FE0134CB4FBF1F5104C241F48
:1050F000246847F6C076344096FAA6F6B6FA86F6E5
:10510000F44005FB04F20A4C241F246804F44034E4
:105110004FF4403595FAA5F5B5FA85F5EC40641CD9
:105120006300B2FBF3F001E0024800BF00BF70BDB6
:10513000083802400024F400001BB70038B50446CC
:105140000025207800F00100002848D0DE480068E3
:1051500000F00C0004280DD0DB48006800F00C00C3
:10516000082811D1D848001F006800F48000B0F56D
:10517000800F09D1D44808380068C0F3404070B3AC
:10518000606860BB012038BD2079CF49891F087055
:10519000606890B1FFF706F8054606E0FFF702F8F1
:1051A000401B642801D90320EDE7C7480838006890
:1051B000C0F340400028F1D011E0FEF7F3FF0546B0
:1051C00006E0FEF7EFFF401B642801D90320DAE771
:1051D000BD4808380068C0F340400028F1D120786D
:1051E00000F00200022869D1B748006800F00C0006
:1051F00058B1B548006800F00C00082821D1B24829
:10520000001F006800F48000D8B9AF480838006873
:10521000C0F3400020B1E068012801D00120B2E7CE
:10522000A9480838006820F0F800F82292FAA2F2A3
:10523000B2FA82F2216991400843A3490839086013
:105240003CE0E06828B30120A0490860FEF7AAFF0F
:10525000054606E0FEF7A6FF401B022801D9032001
:1052600091E7994808380068C0F340000028F1D061
:1052700095480838006820F0F800F82292FAA2F267
:10528000B2FA82F22169914008438F4908390860D7
:1052900014E000208D490860FEF784FF054606E013
:1052A000FEF780FF401B022801D903206BE78648E8
:1052B00008380068C0F340000028F1D1207800F0E1
:1052C000080008282CD16069A8B101208049086035
:1052D000FEF768FF054606E0FEF764FF401B022864
:1052E00001D903204FE778486C300068C0F34000D4
:1052F0000028F1D014E0002075490860FEF752FF45
:10530000054606E0FEF74EFF401B022801D90320A8
:1053100039E76D486C300068C0F340000028F1D1D7
:10532000207800F00400042857D100BF002000902E
:1053300065483830006840F0805063493831086073
:105340000846006800F08050009000BF00BF614830
:10535000006840F480705F490860FEF723FF05464F
:1053600006E0FEF71FFF401B022801D903200AE7D1
:105370005848006800F480700028F2D0207A524922
:1053800068310870A068A0B1FEF70CFF054608E080
:10539000FEF708FF401B41F28831884201D9032003
:1053A000F1E6494868300068C0F340000028EFD0BB
:1053B00013E0FEF7F7FE054608E0FEF7F3FE401B9C
:1053C00041F28831884201D90320DCE63E4868304A
:1053D0000068C0F340000028EFD1A069F0B33A485C
:1053E000006800F00C00082869D0A069022850D19C
:1053F000002036490866FEF7D5FE054606E0FEF7B2
:10540000D1FE401B022801D90320BCE62E480838F3
:105410000068C0F340600028F1D1D4E907010843D7
:1054200047F6C07292FAA2F2B2FA82F2616A914031
:1054300008430122A16AC2EB51014FF4403292FAB3
:10544000A2F2B2FA82F2914008434FF0706292FAEF
:10545000A2F2B2FA82F2E16A914000E031E0084340
:105460001949091F0860012018490866FEF79AFECD
:10547000054606E0FEF796FE401B022801D90320F0
:1054800081E6114808380068C0F340600028F1D078
:1054900017E000200D490866FEF784FE054606E089
:1054A000FEF780FE401B022801D903206BE6064868
:1054B00008380068C0F340600028F1D101E0012005
:1054C00061E600205FE60000083802400000474225
:1054D000800E47420070004010B504460CB9012010
:1054E00010BD606A00B900BF0021A16294F85100AC
:1054F00028B9002084F85000204600F033F802203C
:1055000084F851002068006820F04000216808609D
:10551000D4E901010843E16808432169084361694E
:105520000843218B01F400710843E1690843216AB3
:105530000843A16A0843216808600421A06901EAC0
:105540001040616A0843216848602068C06920F4FF
:1055500000602168C86100206065012084F8510066
:105560000020BDE710B586B0044612492068884285
:105570001ED100BF002000900F48006840F480104A
:105580000D4908600846006800F48010009000BFD4
:1055900000BF4FF460700190022002900020039041
:1055A000032004900520059001A90448FEF7DEFCC5
:1055B00006B010BD005001404438024000140240C3
:1055C0002DE9FE4F04460D4616461F46DDF8308095
:1055D0004FF0000A0020029081464FF0010B01902D
:1055E00000BF94F85000012802D10220BDE8FE8FD0
:1055F000012084F8500000BFFEF7D4FD814694F8E6
:1056000051A060680290BAF1010F0BD00298B0F57A
:10561000827F04D1A06810B9BAF1040F02D0022031
:105620000190D2E00DB106B117B901200190CCE094
:1056300094F85100012802D1052084F8510000207F
:105640006065A663E787A7872563E786A78620644A
:1056500060642068006800F04000402805D02068A1
:10566000006840F0400021680860E068B0F5006F15
:1056700043D1606810B1E08E012806D128882168E6
:10568000C860AD1CE08E401EE0862FE0BBF1000F2D
:1056900010D0E08E70B12068806800F0020002280F
:1056A00008D128882168C860AD1CE08E401EE086C5
:1056B0004FF0000BE08F68B12068806800F00100B7
:1056C00040B12068C0683080B61CE08F401EE08783
:1056D0004FF0010B08F1010040B1FEF763FDA0EBB4
:1056E0000900404502D3032001906EE0E08E0028BF
:1056F000CCD1E08F0028C9D142E0606810B1E08EC3
:10570000012806D12878216808736D1CE08E401EA0
:10571000E0862FE0BBF1000F10D0E08E70B1206862
:10572000806800F00200022808D115F8010B2168FA
:105730000873E08E401EE0864FF0000BE08F68B1EA
:105740002068806800F0010040B12068C06806F859
:10575000010BE08F401EE0874FF0010B08F10100C4
:1057600040B1FEF71FFDA0EB0900404502D3032026
:1057700001902AE0E08E0028CCD1E08F0028C9D12A
:105780004346012202212046CDF8009003F0F4F8B0
:1057900010B10320019018E04A464146204603F02C
:1057A000D7F820B101200190202060650DE0A068AD
:1057B00050B900BF002000902068C06800902068A9
:1057C0008068009000BF00BF00BF012084F8510036
:1057D00000BF002084F8500000BF019806E70428AD
:1057E00008D14FF0E021096941F004014FF0E022B7
:1057F000116107E04FF0E021096921F004014FF049
:10580000E02211617047704770B504462546681E56
:10581000B0F1807F01D301200FE0681E4FF0E0213E
:1058200048610F214FF0FF3002F06EF800204FF07A
:10583000E021886107200861002070BD10B5FFF7E6
:10584000E2FF10BD70477047024600BF92F8380073
:10585000012801D102207047012082F8380000BFE2
:10586000022082F839001068406820F07000136848
:105870005860106840680B681843136858601068D7
:10588000806820F0800013689860106880684B681A
:10589000184313689860012082F8390000BF002087
:1058A00082F8380000BF00BFD5E710B504460CB938
:1058B000012010BD94F8390028B9002084F8380080
:1058C000204600F00DF8022084F83900211D2068E0
:1058D00003F072FA012084F839000020E9E70000A3
:1058E00010B594B004462068B0F1804F42D100BF9B
:1058F000002001905048006840F001004E490860C7
:105900000846006800F00100019000BF00BF881445
:10591000109010A9204600F0B0F800200E900F90D3
:105920000EA92046FFF790FF00200B906020079003
:10593000002008900990002207A9204600F068FA8C
:105940000120029002200390002004900590012085
:10595000069002A93948FEF709FB002203211C200A
:10596000FEF7E5FC1C20FEF7D5FC0021344800F0D2
:105970008BFA5EE03349206888421BD100BF0020CB
:1059800013902D48006840F002002B49086008463B
:10599000006800F00200139000BF00BF0022022147
:1059A0001D20FEF7C4FC1D20FEF7B4FC264800F0C5
:1059B00055F83EE02549206888421BD100BF0020F1
:1059C00013901D48006840F004001B490860084619
:1059D000006800F00400139000BF00BF0022052102
:1059E0001E20FEF7A4FC1E20FEF794FC184800F0D1
:1059F00035F81EE01749206888421AD100BF002000
:105A000013900D48006840F008000B4908600846F4
:105A1000006800F00800139000BF00BF00220121C1
:105A20003220FEF784FC3220FEF774FC0A4800F0B6
:105A300015F814B010BD00004038024000000240CC
:105A40008417002000040040C01700200008004018
:105A5000FC170020000C00403818002001460868A0
:105A6000C06840F001000A68D0600868006840F033
:105A700001000A681060002070472DE9F0410446DB
:105A80000D46002600BF94F83800012802D10220FC
:105A9000BDE8F081012084F8380000BF022084F8BE
:105AA00039002068866826F0770626F47F4620684D
:105AB0008660286850283BD00CDC202860D004DCAD
:105AC000002853D0102865D155E030285DD04028FB
:105AD00060D141E0602835D070280DD0B0F5805FEE
